{
  "_format": "hh-sol-artifact-1",
  "contractName": "Crowdfunding",
  "sourceName": "src/contracts/Crowdfunding.sol",
  "abi": [
    {
      "inputs": [
        {
          "internalType": "uint256",
          "name": "_projectTax",
          "type": "uint256"
        }
      ],
      "stateMutability": "nonpayable",
      "type": "constructor"
    },
    {
      "anonymous": false,
      "inputs": [
        {
          "indexed": false,
          "internalType": "uint256",
          "name": "id",
          "type": "uint256"
        },
        {
          "indexed": false,
          "internalType": "string",
          "name": "actionType",
          "type": "string"
        },
        {
          "indexed": true,
          "internalType": "address",
          "name": "executor",
          "type": "address"
        },
        {
          "indexed": false,
          "internalType": "uint256",
          "name": "timestamp",
          "type": "uint256"
        }
      ],
      "name": "Action",
      "type": "event"
    },
    {
      "inputs": [
        {
          "internalType": "uint256",
          "name": "id",
          "type": "uint256"
        },
        {
          "internalType": "string",
          "name": "comment",
          "type": "string"
        }
      ],
      "name": "addComment",
      "outputs": [
        {
          "internalType": "bool",
          "name": "",
          "type": "bool"
        }
      ],
      "stateMutability": "nonpayable",
      "type": "function"
    },
    {
      "inputs": [
        {
          "internalType": "uint256",
          "name": "id",
          "type": "uint256"
        }
      ],
      "name": "backProject",
      "outputs": [
        {
          "internalType": "bool",
          "name": "",
          "type": "bool"
        }
      ],
      "stateMutability": "payable",
      "type": "function"
    },
    {
      "inputs": [],
      "name": "balance",
      "outputs": [
        {
          "internalType": "uint256",
          "name": "",
          "type": "uint256"
        }
      ],
      "stateMutability": "view",
      "type": "function"
    },
    {
      "inputs": [
        {
          "internalType": "uint256",
          "name": "_taxPct",
          "type": "uint256"
        }
      ],
      "name": "changeTax",
      "outputs": [],
      "stateMutability": "nonpayable",
      "type": "function"
    },
    {
      "inputs": [
        {
          "internalType": "string",
          "name": "title",
          "type": "string"
        },
        {
          "internalType": "string",
          "name": "description",
          "type": "string"
        },
        {
          "internalType": "string",
          "name": "imageURL",
          "type": "string"
        },
        {
          "internalType": "string",
          "name": "category",
          "type": "string"
        },
        {
          "internalType": "uint256",
          "name": "cost",
          "type": "uint256"
        },
        {
          "internalType": "uint256",
          "name": "expiresAt",
          "type": "uint256"
        }
      ],
      "name": "createProject",
      "outputs": [
        {
          "internalType": "bool",
          "name": "",
          "type": "bool"
        }
      ],
      "stateMutability": "nonpayable",
      "type": "function"
    },
    {
      "inputs": [
        {
          "internalType": "uint256",
          "name": "id",
          "type": "uint256"
        }
      ],
      "name": "deleteProject",
      "outputs": [
        {
          "internalType": "bool",
          "name": "",
          "type": "bool"
        }
      ],
      "stateMutability": "nonpayable",
      "type": "function"
    },
    {
      "inputs": [
        {
          "internalType": "uint256",
          "name": "id",
          "type": "uint256"
        }
      ],
      "name": "getBackers",
      "outputs": [
        {
          "components": [
            {
              "internalType": "address",
              "name": "owner",
              "type": "address"
            },
            {
              "internalType": "uint256",
              "name": "contribution",
              "type": "uint256"
            },
            {
              "internalType": "uint256",
              "name": "timestamp",
              "type": "uint256"
            },
            {
              "internalType": "bool",
              "name": "refunded",
              "type": "bool"
            }
          ],
          "internalType": "struct Crowdfunding.backerStruct[]",
          "name": "",
          "type": "tuple[]"
        }
      ],
      "stateMutability": "view",
      "type": "function"
    },
    {
      "inputs": [
        {
          "internalType": "uint256",
          "name": "id",
          "type": "uint256"
        }
      ],
      "name": "getComments",
      "outputs": [
        {
          "components": [
            {
              "internalType": "address",
              "name": "commenter",
              "type": "address"
            },
            {
              "internalType": "string",
              "name": "comment",
              "type": "string"
            },
            {
              "internalType": "uint256",
              "name": "timestamp",
              "type": "uint256"
            }
          ],
          "internalType": "struct Crowdfunding.commentStruct[]",
          "name": "",
          "type": "tuple[]"
        }
      ],
      "stateMutability": "view",
      "type": "function"
    },
    {
      "inputs": [
        {
          "internalType": "uint256",
          "name": "id",
          "type": "uint256"
        }
      ],
      "name": "getProject",
      "outputs": [
        {
          "components": [
            {
              "internalType": "uint256",
              "name": "id",
              "type": "uint256"
            },
            {
              "internalType": "address",
              "name": "owner",
              "type": "address"
            },
            {
              "internalType": "string",
              "name": "title",
              "type": "string"
            },
            {
              "internalType": "string",
              "name": "description",
              "type": "string"
            },
            {
              "internalType": "string",
              "name": "imageURL",
              "type": "string"
            },
            {
              "internalType": "string",
              "name": "category",
              "type": "string"
            },
            {
              "internalType": "uint256",
              "name": "cost",
              "type": "uint256"
            },
            {
              "internalType": "uint256",
              "name": "raised",
              "type": "uint256"
            },
            {
              "internalType": "uint256",
              "name": "timestamp",
              "type": "uint256"
            },
            {
              "internalType": "uint256",
              "name": "expiresAt",
              "type": "uint256"
            },
            {
              "internalType": "uint256",
              "name": "backers",
              "type": "uint256"
            },
            {
              "internalType": "enum Crowdfunding.statusEnum",
              "name": "status",
              "type": "uint8"
            }
          ],
          "internalType": "struct Crowdfunding.projectStruct",
          "name": "",
          "type": "tuple"
        }
      ],
      "stateMutability": "view",
      "type": "function"
    },
    {
      "inputs": [],
      "name": "getProjects",
      "outputs": [
        {
          "components": [
            {
              "internalType": "uint256",
              "name": "id",
              "type": "uint256"
            },
            {
              "internalType": "address",
              "name": "owner",
              "type": "address"
            },
            {
              "internalType": "string",
              "name": "title",
              "type": "string"
            },
            {
              "internalType": "string",
              "name": "description",
              "type": "string"
            },
            {
              "internalType": "string",
              "name": "imageURL",
              "type": "string"
            },
            {
              "internalType": "string",
              "name": "category",
              "type": "string"
            },
            {
              "internalType": "uint256",
              "name": "cost",
              "type": "uint256"
            },
            {
              "internalType": "uint256",
              "name": "raised",
              "type": "uint256"
            },
            {
              "internalType": "uint256",
              "name": "timestamp",
              "type": "uint256"
            },
            {
              "internalType": "uint256",
              "name": "expiresAt",
              "type": "uint256"
            },
            {
              "internalType": "uint256",
              "name": "backers",
              "type": "uint256"
            },
            {
              "internalType": "enum Crowdfunding.statusEnum",
              "name": "status",
              "type": "uint8"
            }
          ],
          "internalType": "struct Crowdfunding.projectStruct[]",
          "name": "",
          "type": "tuple[]"
        }
      ],
      "stateMutability": "view",
      "type": "function"
    },
    {
      "inputs": [
        {
          "internalType": "string",
          "name": "category",
          "type": "string"
        }
      ],
      "name": "getProjectsByCategory",
      "outputs": [
        {
          "components": [
            {
              "internalType": "uint256",
              "name": "id",
              "type": "uint256"
            },
            {
              "internalType": "address",
              "name": "owner",
              "type": "address"
            },
            {
              "internalType": "string",
              "name": "title",
              "type": "string"
            },
            {
              "internalType": "string",
              "name": "description",
              "type": "string"
            },
            {
              "internalType": "string",
              "name": "imageURL",
              "type": "string"
            },
            {
              "internalType": "string",
              "name": "category",
              "type": "string"
            },
            {
              "internalType": "uint256",
              "name": "cost",
              "type": "uint256"
            },
            {
              "internalType": "uint256",
              "name": "raised",
              "type": "uint256"
            },
            {
              "internalType": "uint256",
              "name": "timestamp",
              "type": "uint256"
            },
            {
              "internalType": "uint256",
              "name": "expiresAt",
              "type": "uint256"
            },
            {
              "internalType": "uint256",
              "name": "backers",
              "type": "uint256"
            },
            {
              "internalType": "enum Crowdfunding.statusEnum",
              "name": "status",
              "type": "uint8"
            }
          ],
          "internalType": "struct Crowdfunding.projectStruct[]",
          "name": "",
          "type": "tuple[]"
        }
      ],
      "stateMutability": "view",
      "type": "function"
    },
    {
      "inputs": [],
      "name": "owner",
      "outputs": [
        {
          "internalType": "address",
          "name": "",
          "type": "address"
        }
      ],
      "stateMutability": "view",
      "type": "function"
    },
    {
      "inputs": [
        {
          "internalType": "uint256",
          "name": "id",
          "type": "uint256"
        }
      ],
      "name": "payOutProject",
      "outputs": [
        {
          "internalType": "bool",
          "name": "",
          "type": "bool"
        }
      ],
      "stateMutability": "nonpayable",
      "type": "function"
    },
    {
      "inputs": [],
      "name": "projectCount",
      "outputs": [
        {
          "internalType": "uint256",
          "name": "",
          "type": "uint256"
        }
      ],
      "stateMutability": "view",
      "type": "function"
    },
    {
      "inputs": [
        {
          "internalType": "uint256",
          "name": "",
          "type": "uint256"
        }
      ],
      "name": "projectExist",
      "outputs": [
        {
          "internalType": "bool",
          "name": "",
          "type": "bool"
        }
      ],
      "stateMutability": "view",
      "type": "function"
    },
    {
      "inputs": [],
      "name": "projectTax",
      "outputs": [
        {
          "internalType": "uint256",
          "name": "",
          "type": "uint256"
        }
      ],
      "stateMutability": "view",
      "type": "function"
    },
    {
      "inputs": [
        {
          "internalType": "uint256",
          "name": "",
          "type": "uint256"
        }
      ],
      "name": "projects",
      "outputs": [
        {
          "internalType": "uint256",
          "name": "id",
          "type": "uint256"
        },
        {
          "internalType": "address",
          "name": "owner",
          "type": "address"
        },
        {
          "internalType": "string",
          "name": "title",
          "type": "string"
        },
        {
          "internalType": "string",
          "name": "description",
          "type": "string"
        },
        {
          "internalType": "string",
          "name": "imageURL",
          "type": "string"
        },
        {
          "internalType": "string",
          "name": "category",
          "type": "string"
        },
        {
          "internalType": "uint256",
          "name": "cost",
          "type": "uint256"
        },
        {
          "internalType": "uint256",
          "name": "raised",
          "type": "uint256"
        },
        {
          "internalType": "uint256",
          "name": "timestamp",
          "type": "uint256"
        },
        {
          "internalType": "uint256",
          "name": "expiresAt",
          "type": "uint256"
        },
        {
          "internalType": "uint256",
          "name": "backers",
          "type": "uint256"
        },
        {
          "internalType": "enum Crowdfunding.statusEnum",
          "name": "status",
          "type": "uint8"
        }
      ],
      "stateMutability": "view",
      "type": "function"
    },
    {
      "inputs": [
        {
          "internalType": "uint256",
          "name": "id",
          "type": "uint256"
        }
      ],
      "name": "requestRefund",
      "outputs": [
        {
          "internalType": "bool",
          "name": "",
          "type": "bool"
        }
      ],
      "stateMutability": "nonpayable",
      "type": "function"
    },
    {
      "inputs": [],
      "name": "stats",
      "outputs": [
        {
          "internalType": "uint256",
          "name": "totalProjects",
          "type": "uint256"
        },
        {
          "internalType": "uint256",
          "name": "totalBacking",
          "type": "uint256"
        },
        {
          "internalType": "uint256",
          "name": "totalDonations",
          "type": "uint256"
        }
      ],
      "stateMutability": "view",
      "type": "function"
    },
    {
      "inputs": [
        {
          "internalType": "uint256",
          "name": "id",
          "type": "uint256"
        },
        {
          "internalType": "string",
          "name": "title",
          "type": "string"
        },
        {
          "internalType": "string",
          "name": "description",
          "type": "string"
        },
        {
          "internalType": "string",
          "name": "imageURL",
          "type": "string"
        },
        {
          "internalType": "uint256",
          "name": "expiresAt",
          "type": "uint256"
        }
      ],
      "name": "updateProject",
      "outputs": [
        {
          "internalType": "bool",
          "name": "",
          "type": "bool"
        }
      ],
      "stateMutability": "nonpayable",
      "type": "function"
    }
  ],
  "bytecode": "0x60806040523480156200001157600080fd5b50604051620032b3380380620032b383398101604081905262000034916200004f565b600080546001600160a01b0319163317905560015562000069565b6000602082840312156200006257600080fd5b5051919050565b61323a80620000796000396000f3fe60806040526004361061011f5760003560e01c80639f39a194116100a0578063c9168b7211610064578063c9168b7214610362578063d24cd3ec1461038f578063d80528ae146103a5578063dcc60128146103df578063f0f3f2c8146103f457600080fd5b80639f39a194146102d9578063a4b2409e146102ec578063aa7e56831461030c578063b531dcba1461032c578063b69ef8a81461034c57600080fd5b80633e45c8af116100e75780633e45c8af1461020f5780634cd0cb28146102315780638593054b146102515780638da5cb5b146102815780639a3fa8c7146102b957600080fd5b8063012865a414610124578063107046bd1461015957806323edf697146101915780632e4efe95146101be57806336fbad26146101eb575b600080fd5b34801561013057600080fd5b5061014461013f366004612adc565b610421565b60405190151581526020015b60405180910390f35b34801561016557600080fd5b50610179610174366004612b9b565b61095e565b6040516101509c9b9a99989796959493929190612c48565b34801561019d57600080fd5b506101b16101ac366004612b9b565b610bfb565b6040516101509190612cf2565b3480156101ca57600080fd5b506101de6101d9366004612d7e565b610d1f565b6040516101509190612e9c565b3480156101f757600080fd5b5061020160025481565b604051908152602001610150565b34801561021b57600080fd5b5061022f61022a366004612b9b565b611173565b005b34801561023d57600080fd5b5061014461024c366004612b9b565b6111c8565b34801561025d57600080fd5b5061014461026c366004612b9b565b600b6020526000908152604090205460ff1681565b34801561028d57600080fd5b506000546102a1906001600160a01b031681565b6040516001600160a01b039091168152602001610150565b3480156102c557600080fd5b506101446102d4366004612efe565b611345565b6101446102e7366004612b9b565b6115bb565b3480156102f857600080fd5b50610144610307366004612b9b565b611935565b34801561031857600080fd5b50610144610327366004612f98565b611a75565b34801561033857600080fd5b50610144610347366004612b9b565b611c3c565b34801561035857600080fd5b5061020160035481565b34801561036e57600080fd5b5061038261037d366004612b9b565b611d34565b6040516101509190612fdf565b34801561039b57600080fd5b5061020160015481565b3480156103b157600080fd5b506004546005546006546103c492919083565b60408051938452602084019290925290820152606001610150565b3480156103eb57600080fd5b506101de611dcb565b34801561040057600080fd5b5061041461040f366004612b9b565b6120f8565b604051610150919061304e565b6000808751116104735760405162461bcd60e51b81526020600482015260186024820152774a7564756c20746964616b20626f6c6568206b6f736f6e6760401b60448201526064015b60405180910390fd5b60008651116104c45760405162461bcd60e51b815260206004820152601c60248201527f4465736b726970736920746964616b20626f6c6568206b6f736f6e6700000000604482015260640161046a565b60008551116105155760405162461bcd60e51b815260206004820152601c60248201527f47616d62617255524c20746964616b20626f6c6568206b6f736f6e6700000000604482015260640161046a565b60008451116105665760405162461bcd60e51b815260206004820152601b60248201527f4b617465676f726920746964616b20626f6c6568206b6f736f6e670000000000604482015260640161046a565b600083116105ae5760405162461bcd60e51b8152602060048201526015602482015274109a585e58481d1a59185ac8189bdb195a081b9bdb605a1b604482015260640161046a565b6105b6612926565b6002548152336020808301918252604083018a8152606084018a90526080840189905260a0840188905260c084018790524261010085015261012084018690526007805460018101825560009190915284517fa66cc928b5edb82af9bd49922954155ab7b0942694bea4ce44661d9a8736c688600c90920291820190815593517fa66cc928b5edb82af9bd49922954155ab7b0942694bea4ce44661d9a8736c689820180546001600160a01b0319166001600160a01b03909216919091179055905180518594936106ab937fa66cc928b5edb82af9bd49922954155ab7b0942694bea4ce44661d9a8736c68a019201906129a0565b50606082015180516106c79160038401916020909101906129a0565b50608082015180516106e39160048401916020909101906129a0565b5060a082015180516106ff9160058401916020909101906129a0565b5060c0820151600682015560e0820151600782015561010082015160088201556101208201516009820155610140820151600a820155610160820151600b8201805460ff1916600183600481111561075957610759612c10565b021790555050600280546000908152600b602090815260408083208054600160ff1990911681179091553384526008835281842080548083018255908552938390208751600c909502019384558683015190840180546001600160a01b0319166001600160a01b03909216919091179055850151805186955092936107e6939085019291909101906129a0565b50606082015180516108029160038401916020909101906129a0565b506080820151805161081e9160048401916020909101906129a0565b5060a0820151805161083a9160058401916020909101906129a0565b5060c0820151600682015560e0820151600782015561010082015160088201556101208201516009820155610140820151600a820155610160820151600b8201805460ff1916600183600481111561089457610894612c10565b021790555050506001600460000160008282546108b1919061307e565b9091555050604051600c906108c7908790613096565b90815260405160209181900382019020600280548254600181018455600093845293832090930192909255815433926000805160206131e58339815191529261090f836130b2565b9091555060408051918252606060208301819052600e908301526d141493d29150d50811125095505560921b6080830152429082015260a00160405180910390a2506001979650505050505050565b6007818154811061096e57600080fd5b60009182526020909120600c90910201805460018201546002830180549294506001600160a01b0390911692916109a4906130cd565b80601f01602080910402602001604051908101604052809291908181526020018280546109d0906130cd565b8015610a1d5780601f106109f257610100808354040283529160200191610a1d565b820191906000526020600020905b815481529060010190602001808311610a0057829003601f168201915b505050505090806003018054610a32906130cd565b80601f0160208091040260200160405190810160405280929190818152602001828054610a5e906130cd565b8015610aab5780601f10610a8057610100808354040283529160200191610aab565b820191906000526020600020905b815481529060010190602001808311610a8e57829003601f168201915b505050505090806004018054610ac0906130cd565b80601f0160208091040260200160405190810160405280929190818152602001828054610aec906130cd565b8015610b395780601f10610b0e57610100808354040283529160200191610b39565b820191906000526020600020905b815481529060010190602001808311610b1c57829003601f168201915b505050505090806005018054610b4e906130cd565b80601f0160208091040260200160405190810160405280929190818152602001828054610b7a906130cd565b8015610bc75780601f10610b9c57610100808354040283529160200191610bc7565b820191906000526020600020905b815481529060010190602001808311610baa57829003601f168201915b5050506006840154600785015460088601546009870154600a880154600b9098015496979396929550909350919060ff168c565b6060600a6000838152602001908152602001600020805480602002602001604051908101604052809291908181526020016000905b82821015610d1457600084815260209081902060408051606081019091526003850290910180546001600160a01b031682526001810180549293919291840191610c79906130cd565b80601f0160208091040260200160405190810160405280929190818152602001828054610ca5906130cd565b8015610cf25780601f10610cc757610100808354040283529160200191610cf2565b820191906000526020600020905b815481529060010190602001808311610cd557829003601f168201915b5050505050815260200160028201548152505081526020019060010190610c30565b505050509050919050565b60606000600c83604051610d339190613096565b9081526040519081900360200190205467ffffffffffffffff811115610d5b57610d5b612a39565b604051908082528060200260200182016040528015610d9457816020015b610d81612926565b815260200190600190039081610d795790505b5090506000600c84604051610da99190613096565b9081526040805191829003602090810183208054808302850183019093528284529190830182828015610dfb57602002820191906000526020600020905b815481526020019060010190808311610de7575b5050505050905060005b815181101561116a576007828281518110610e2257610e22613108565b602002602001015181548110610e3a57610e3a613108565b90600052602060002090600c020160405180610180016040529081600082015481526020016001820160009054906101000a90046001600160a01b03166001600160a01b03166001600160a01b03168152602001600282018054610e9d906130cd565b80601f0160208091040260200160405190810160405280929190818152602001828054610ec9906130cd565b8015610f165780601f10610eeb57610100808354040283529160200191610f16565b820191906000526020600020905b815481529060010190602001808311610ef957829003601f168201915b50505050508152602001600382018054610f2f906130cd565b80601f0160208091040260200160405190810160405280929190818152602001828054610f5b906130cd565b8015610fa85780601f10610f7d57610100808354040283529160200191610fa8565b820191906000526020600020905b815481529060010190602001808311610f8b57829003601f168201915b50505050508152602001600482018054610fc1906130cd565b80601f0160208091040260200160405190810160405280929190818152602001828054610fed906130cd565b801561103a5780601f1061100f5761010080835404028352916020019161103a565b820191906000526020600020905b81548152906001019060200180831161101d57829003601f168201915b50505050508152602001600582018054611053906130cd565b80601f016020809104026020016040519081016040528092919081815260200182805461107f906130cd565b80156110cc5780601f106110a1576101008083540402835291602001916110cc565b820191906000526020600020905b8154815290600101906020018083116110af57829003601f168201915b505050918352505060068201546020820152600782015460408201526008820154606082015260098201546080820152600a82015460a0820152600b82015460c09091019060ff16600481111561112557611125612c10565b600481111561113657611136612c10565b8152505083828151811061114c5761114c613108565b60200260200101819052508080611162906130b2565b915050610e05565b50909392505050565b6000546001600160a01b031633146111c35760405162461bcd60e51b815260206004820152601360248201527248616e796120756e74756b2070656d696c696b60681b604482015260640161046a565b600155565b600080600783815481106111de576111de613108565b60009182526020909120600b600c90920201015460ff16600481111561120657611206612c10565b1461124f5760405162461bcd60e51b815260206004820152601960248201527850726f6a65637420746964616b206c61676920646962756b6160381b604482015260640161046a565b6007828154811061126257611262613108565b60009182526020909120600c90910201600101546001600160a01b0316331461129d5760405162461bcd60e51b815260040161046a9061311e565b6003600783815481106112b2576112b2613108565b60009182526020909120600b600c9092020101805460ff191660018360048111156112df576112df612c10565b02179055506112ed82612446565b60408051838152606060208201819052600f908201526e50524f4a454354204449484150555360881b60808201524281830152905133916000805160206131e5833981519152919081900360a00190a2506001919050565b60006007868154811061135a5761135a613108565b60009182526020909120600c90910201600101546001600160a01b031633146113955760405162461bcd60e51b815260040161046a9061311e565b60008551116113e15760405162461bcd60e51b81526020600482015260186024820152774a7564756c20746964616b20626f6c6568206b6f736f6e6760401b604482015260640161046a565b60008451116114325760405162461bcd60e51b815260206004820152601c60248201527f4465736b726970736920746964616b20626f6c6568206b6f736f6e6700000000604482015260640161046a565b60008351116114835760405162461bcd60e51b815260206004820152601c60248201527f47616d62617255524c20746964616b20626f6c6568206b6f736f6e6700000000604482015260640161046a565b846007878154811061149757611497613108565b90600052602060002090600c020160020190805190602001906114bb9291906129a0565b5083600787815481106114d0576114d0613108565b90600052602060002090600c020160030190805190602001906114f49291906129a0565b50826007878154811061150957611509613108565b90600052602060002090600c0201600401908051906020019061152d9291906129a0565b50816007878154811061154257611542613108565b90600052602060002090600c020160090181905550611560866125b4565b60408051878152606060208201819052600e908201526d50524f4a4543542055504441544560901b60808201524281830152905133916000805160206131e5833981519152919081900360a00190a250600195945050505050565b600080341161160c5760405162461bcd60e51b815260206004820181905260248201527f4574686572206861727573206c656269682062657361722064617269206e6f6c604482015260640161046a565b6000828152600b602052604090205460ff1661163a5760405162461bcd60e51b815260040161046a90613155565b60006007838154811061164f5761164f613108565b60009182526020909120600b600c90920201015460ff16600481111561167757611677612c10565b146116c05760405162461bcd60e51b815260206004820152601960248201527850726f6a65637420746964616b206c61676920646962756b6160381b604482015260640161046a565b6001600460010160008282546116d6919061307e565b9091555050600680543491906000906116f090849061307e565b92505081905550346007838154811061170b5761170b613108565b90600052602060002090600c0201600701600082825461172b919061307e565b9250508190555060016007838154811061174757611747613108565b90600052602060002090600c0201600a016000828254611767919061307e565b9091555050600082815260096020908152604080832081516080808201845233808352348387019081524284870181815260608087018b8152885460018082018b55998d529b8b902097516004909c0290970180546001600160a01b0319166001600160a01b03909c169b909b178b559251968a01969096559451600289015592516003909701805460ff19169715159790971790965583518881529485018290526010918501919091526f111552d55391d05388141493d29150d560821b90840152908201526000805160206131e58339815191529060a00160405180910390a2611852826125b4565b6007828154811061186557611865613108565b90600052602060002090600c0201600601546007838154811061188a5761188a613108565b90600052602060002090600c0201600701541061192d576001600783815481106118b6576118b6613108565b60009182526020909120600b600c9092020101805460ff191660018360048111156118e3576118e3612c10565b0217905550600782815481106118fb576118fb613108565b90600052602060002090600c0201600701546003600082825461191e919061307e565b9091555061192d905082612687565b506001919050565b600060026007838154811061194c5761194c613108565b60009182526020909120600b600c90920201015460ff16600481111561197457611974612c10565b1415806119bc575060036007838154811061199157611991613108565b60009182526020909120600b600c90920201015460ff1660048111156119b9576119b9612c10565b14155b611a255760405162461bcd60e51b815260206004820152603460248201527f50726f6a65637420746964616b20646974616e6461692073656261676169206b604482015273656d62616c696b616e206174617520686170757360601b606482015260840161046a565b600260078381548110611a3a57611a3a613108565b60009182526020909120600b600c9092020101805460ff19166001836004811115611a6757611a67612c10565b021790555061192d82612446565b6000828152600b602052604081205460ff16611aa35760405162461bcd60e51b815260040161046a90613155565b611aad8333612800565b80611aef5750336001600160a01b031660078481548110611ad057611ad0613108565b600091825260209091206001600c9092020101546001600160a01b0316145b611b575760405162461bcd60e51b815260206004820152603360248201527f48616e79612070656e64756b756e6720617461752070656d696c696b2079616e60448201527233903230b830ba103132b935b7b6b2b73a30b960691b606482015260840161046a565b6000838152600a602090815260408083208151606081018352338152808401878152429382019390935281546001808201845592865294849020815160039096020180546001600160a01b0319166001600160a01b0390961695909517855591518051929493611bcd93928501929101906129a0565b506040918201516002909101555133906000805160206131e583398151915290611c2a9086904290918252606060208301819052600f908301526e141493d29150d50810d3d353515395608a1b6080830152604082015260a00190565b60405180910390a25060015b92915050565b6000600160078381548110611c5357611c53613108565b60009182526020909120600b600c90920201015460ff166004811115611c7b57611c7b612c10565b14611cc85760405162461bcd60e51b815260206004820152601760248201527f50726f6a65637420746964616b204449534554554a5549000000000000000000604482015260640161046a565b60078281548110611cdb57611cdb613108565b60009182526020909120600c90910201600101546001600160a01b0316331480611d0f57506000546001600160a01b031633145b611d2b5760405162461bcd60e51b815260040161046a9061311e565b61192d82612687565b606060096000838152602001908152602001600020805480602002602001604051908101604052809291908181526020016000905b82821015610d14576000848152602090819020604080516080810182526004860290920180546001600160a01b03168352600180820154848601526002820154928401929092526003015460ff16151560608301529083529092019101611d69565b60606007805480602002602001604051908101604052809291908181526020016000905b828210156120ef5760008481526020908190206040805161018081018252600c86029092018054835260018101546001600160a01b03169383019390935260028301805492939291840191611e43906130cd565b80601f0160208091040260200160405190810160405280929190818152602001828054611e6f906130cd565b8015611ebc5780601f10611e9157610100808354040283529160200191611ebc565b820191906000526020600020905b815481529060010190602001808311611e9f57829003601f168201915b50505050508152602001600382018054611ed5906130cd565b80601f0160208091040260200160405190810160405280929190818152602001828054611f01906130cd565b8015611f4e5780601f10611f2357610100808354040283529160200191611f4e565b820191906000526020600020905b815481529060010190602001808311611f3157829003601f168201915b50505050508152602001600482018054611f67906130cd565b80601f0160208091040260200160405190810160405280929190818152602001828054611f93906130cd565b8015611fe05780601f10611fb557610100808354040283529160200191611fe0565b820191906000526020600020905b815481529060010190602001808311611fc357829003601f168201915b50505050508152602001600582018054611ff9906130cd565b80601f0160208091040260200160405190810160405280929190818152602001828054612025906130cd565b80156120725780601f1061204757610100808354040283529160200191612072565b820191906000526020600020905b81548152906001019060200180831161205557829003601f168201915b505050918352505060068201546020820152600782015460408201526008820154606082015260098201546080820152600a82015460a0820152600b82015460c09091019060ff1660048111156120cb576120cb612c10565b60048111156120dc576120dc612c10565b8152505081526020019060010190611def565b50505050905090565b612100612926565b6000828152600b602052604090205460ff1661212e5760405162461bcd60e51b815260040161046a90613155565b6007828154811061214157612141613108565b90600052602060002090600c020160405180610180016040529081600082015481526020016001820160009054906101000a90046001600160a01b03166001600160a01b03166001600160a01b031681526020016002820180546121a4906130cd565b80601f01602080910402602001604051908101604052809291908181526020018280546121d0906130cd565b801561221d5780601f106121f25761010080835404028352916020019161221d565b820191906000526020600020905b81548152906001019060200180831161220057829003601f168201915b50505050508152602001600382018054612236906130cd565b80601f0160208091040260200160405190810160405280929190818152602001828054612262906130cd565b80156122af5780601f10612284576101008083540402835291602001916122af565b820191906000526020600020905b81548152906001019060200180831161229257829003601f168201915b505050505081526020016004820180546122c8906130cd565b80601f01602080910402602001604051908101604052809291908181526020018280546122f4906130cd565b80156123415780601f1061231657610100808354040283529160200191612341565b820191906000526020600020905b81548152906001019060200180831161232457829003601f168201915b5050505050815260200160058201805461235a906130cd565b80601f0160208091040260200160405190810160405280929190818152602001828054612386906130cd565b80156123d35780601f106123a8576101008083540402835291602001916123d3565b820191906000526020600020905b8154815290600101906020018083116123b657829003601f168201915b505050918352505060068201546020820152600782015460408201526008820154606082015260098201546080820152600a82015460a0820152600b82015460c09091019060ff16600481111561242c5761242c612c10565b600481111561243d5761243d612c10565b90525092915050565b60005b6000828152600960205260409020548110156125b057600082815260096020526040812080548390811061247f5761247f613108565b6000918252602080832060049092029091015485835260099091526040822080546001600160a01b03909216935090849081106124be576124be613108565b906000526020600020906004020160010154905060016009600086815260200190815260200160002084815481106124f8576124f8613108565b906000526020600020906004020160030160006101000a81548160ff0219169083151502179055504260096000868152602001908152602001600020848154811061254557612545613108565b906000526020600020906004020160020181905550612564828261288c565b60016004600101600082825461257a919061318c565b90915550506006805482919060009061259490849061318c565b92505081905550505080806125a8906130b2565b915050612449565b5050565b600781815481106125c7576125c7613108565b90600052602060002090600c020160090154421015801561262f5750600781815481106125f6576125f6613108565b90600052602060002090600c0201600601546007828154811061261b5761261b613108565b90600052602060002090600c020160070154105b156126845760026007828154811061264957612649613108565b60009182526020909120600b600c9092020101805460ff1916600183600481111561267657612676612c10565b021790555061268481612446565b50565b60006007828154811061269c5761269c613108565b90600052602060002090600c020160070154905060006064600154836126c291906131a3565b6126cc91906131c2565b90506004600784815481106126e3576126e3613108565b60009182526020909120600b600c9092020101805460ff1916600183600481111561271057612710612c10565b02179055506127576007848154811061272b5761272b613108565b600091825260209091206001600c9092020101546001600160a01b0316612752838561318c565b61288c565b60005461276d906001600160a01b03168261288c565b6007838154811061278057612780613108565b90600052602060002090600c020160070154600360008282546127a3919061318c565b90915550506040805184815260606020820181905260129082015271282927a522a1aa102224a120aca0a925a0a760711b60808201524281830152905133916000805160206131e5833981519152919081900360a00190a2505050565b6000805b60008481526009602052604090205481101561288257600084815260096020526040902080546001600160a01b03851691908390811061284657612846613108565b60009182526020909120600490910201546001600160a01b03161415612870576001915050611c36565b8061287a816130b2565b915050612804565b5060009392505050565b6000826001600160a01b03168260405160006040518083038185875af1925050503d80600081146128d9576040519150601f19603f3d011682016040523d82523d6000602084013e6128de565b606091505b50509050806129215760405162461bcd60e51b815260206004820152600f60248201526e151c985b9cd85adcda4819d859d85b608a1b604482015260640161046a565b505050565b6040518061018001604052806000815260200160006001600160a01b031681526020016060815260200160608152602001606081526020016060815260200160008152602001600081526020016000815260200160008152602001600081526020016000600481111561299b5761299b612c10565b905290565b8280546129ac906130cd565b90600052602060002090601f0160209004810192826129ce5760008555612a14565b82601f106129e757805160ff1916838001178555612a14565b82800160010185558215612a14579182015b82811115612a145782518255916020019190600101906129f9565b50612a20929150612a24565b5090565b5b80821115612a205760008155600101612a25565b634e487b7160e01b600052604160045260246000fd5b600082601f830112612a6057600080fd5b813567ffffffffffffffff80821115612a7b57612a7b612a39565b604051601f8301601f19908116603f01168101908282118183101715612aa357612aa3612a39565b81604052838152866020858801011115612abc57600080fd5b836020870160208301376000602085830101528094505050505092915050565b60008060008060008060c08789031215612af557600080fd5b863567ffffffffffffffff80821115612b0d57600080fd5b612b198a838b01612a4f565b97506020890135915080821115612b2f57600080fd5b612b3b8a838b01612a4f565b96506040890135915080821115612b5157600080fd5b612b5d8a838b01612a4f565b95506060890135915080821115612b7357600080fd5b50612b8089828a01612a4f565b9350506080870135915060a087013590509295509295509295565b600060208284031215612bad57600080fd5b5035919050565b60005b83811015612bcf578181015183820152602001612bb7565b83811115612bde576000848401525b50505050565b60008151808452612bfc816020860160208601612bb4565b601f01601f19169290920160200192915050565b634e487b7160e01b600052602160045260246000fd5b60058110612c4457634e487b7160e01b600052602160045260246000fd5b9052565b8c81526001600160a01b038c16602082015261018060408201819052600090612c738382018e612be4565b90508281036060840152612c87818d612be4565b90508281036080840152612c9b818c612be4565b905082810360a0840152612caf818b612be4565b9150508760c08301528660e0830152856101008301528461012083015283610140830152612ce1610160830184612c26565b9d9c50505050505050505050505050565b60006020808301818452808551808352604092508286019150828160051b87010184880160005b83811015612d7057888303603f19018552815180516001600160a01b0316845287810151606089860181905290612d5282870182612be4565b92890151958901959095525094870194925090860190600101612d19565b509098975050505050505050565b600060208284031215612d9057600080fd5b813567ffffffffffffffff811115612da757600080fd5b612db384828501612a4f565b949350505050565b6000610180825184526020830151612dde60208601826001600160a01b03169052565b506040830151816040860152612df682860182612be4565b91505060608301518482036060860152612e108282612be4565b91505060808301518482036080860152612e2a8282612be4565b91505060a083015184820360a0860152612e448282612be4565b91505060c083015160c085015260e083015160e085015261010080840151818601525061012080840151818601525061014080840151818601525061016080840151612e9282870182612c26565b5090949350505050565b6000602080830181845280855180835260408601915060408160051b870101925083870160005b82811015612ef157603f19888603018452612edf858351612dbb565b94509285019290850190600101612ec3565b5092979650505050505050565b600080600080600060a08688031215612f1657600080fd5b85359450602086013567ffffffffffffffff80821115612f3557600080fd5b612f4189838a01612a4f565b95506040880135915080821115612f5757600080fd5b612f6389838a01612a4f565b94506060880135915080821115612f7957600080fd5b50612f8688828901612a4f565b95989497509295608001359392505050565b60008060408385031215612fab57600080fd5b82359150602083013567ffffffffffffffff811115612fc957600080fd5b612fd585828601612a4f565b9150509250929050565b602080825282518282018190526000919060409081850190868401855b8281101561304157815180516001600160a01b031685528681015187860152858101518686015260609081015115159085015260809093019290850190600101612ffc565b5091979650505050505050565b6020815260006130616020830184612dbb565b9392505050565b634e487b7160e01b600052601160045260246000fd5b6000821982111561309157613091613068565b500190565b600082516130a8818460208701612bb4565b9190910192915050565b60006000198214156130c6576130c6613068565b5060010190565b600181811c908216806130e157607f821691505b6020821081141561310257634e487b7160e01b600052602260045260246000fd5b50919050565b634e487b7160e01b600052603260045260246000fd5b6020808252601c908201527f456e74697461732079616e6720546964616b2042657277656e616e6700000000604082015260600190565b60208082526017908201527f50726f6a65637420746964616b20646974656d756b616e000000000000000000604082015260600190565b60008282101561319e5761319e613068565b500390565b60008160001904831182151516156131bd576131bd613068565b500290565b6000826131df57634e487b7160e01b600052601260045260246000fd5b50049056feaee8e5d3bbb2f71a951b5632cee20f7ac487b9f8ab4f66a236f7694b13af7c6aa26469706673582212206f1b2f5953b041a7872b93b0fe6801f80c2188fb57c9942debe7e95de69aba8164736f6c634300080b0033",
  "linkReferences": {},
  "deployedLinkReferences": {}
}